{
  "contractName": "IotDevice",
  "abi": [
    {
      "anonymous": false,
      "inputs": [
        {
          "indexed": false,
          "internalType": "uint256",
          "name": "id",
          "type": "uint256"
        },
        {
          "indexed": false,
          "internalType": "uint256",
          "name": "temp",
          "type": "uint256"
        }
      ],
      "name": "HumidityChange",
      "type": "event"
    },
    {
      "anonymous": false,
      "inputs": [
        {
          "indexed": false,
          "internalType": "uint256",
          "name": "id",
          "type": "uint256"
        },
        {
          "indexed": false,
          "internalType": "string",
          "name": "name",
          "type": "string"
        }
      ],
      "name": "IotAddress",
      "type": "event"
    },
    {
      "anonymous": false,
      "inputs": [
        {
          "indexed": false,
          "internalType": "uint256",
          "name": "id",
          "type": "uint256"
        },
        {
          "indexed": false,
          "internalType": "string",
          "name": "ipAddress",
          "type": "string"
        }
      ],
      "name": "IpChange",
      "type": "event"
    },
    {
      "anonymous": false,
      "inputs": [
        {
          "indexed": false,
          "internalType": "uint256",
          "name": "id",
          "type": "uint256"
        },
        {
          "indexed": false,
          "internalType": "uint256",
          "name": "temp",
          "type": "uint256"
        }
      ],
      "name": "TempChange",
      "type": "event"
    },
    {
      "constant": true,
      "inputs": [
        {
          "internalType": "uint256",
          "name": "",
          "type": "uint256"
        }
      ],
      "name": "IotDeviceToOwner",
      "outputs": [
        {
          "internalType": "address",
          "name": "",
          "type": "address"
        }
      ],
      "payable": false,
      "stateMutability": "view",
      "type": "function"
    },
    {
      "constant": true,
      "inputs": [
        {
          "internalType": "uint256",
          "name": "",
          "type": "uint256"
        }
      ],
      "name": "ToIot",
      "outputs": [
        {
          "internalType": "address",
          "name": "",
          "type": "address"
        }
      ],
      "payable": false,
      "stateMutability": "view",
      "type": "function"
    },
    {
      "constant": true,
      "inputs": [
        {
          "internalType": "uint256",
          "name": "",
          "type": "uint256"
        }
      ],
      "name": "iotdevice",
      "outputs": [
        {
          "internalType": "uint256",
          "name": "id",
          "type": "uint256"
        },
        {
          "internalType": "string",
          "name": "name",
          "type": "string"
        },
        {
          "internalType": "string",
          "name": "IpAddress",
          "type": "string"
        },
        {
          "internalType": "uint256",
          "name": "temp",
          "type": "uint256"
        },
        {
          "internalType": "uint256",
          "name": "humidity",
          "type": "uint256"
        },
        {
          "internalType": "uint256",
          "name": "time",
          "type": "uint256"
        }
      ],
      "payable": false,
      "stateMutability": "view",
      "type": "function"
    },
    {
      "constant": true,
      "inputs": [
        {
          "internalType": "address",
          "name": "",
          "type": "address"
        }
      ],
      "name": "ownerIotCount",
      "outputs": [
        {
          "internalType": "uint256",
          "name": "",
          "type": "uint256"
        }
      ],
      "payable": false,
      "stateMutability": "view",
      "type": "function"
    },
    {
      "constant": true,
      "inputs": [
        {
          "internalType": "address",
          "name": "",
          "type": "address"
        },
        {
          "internalType": "uint256",
          "name": "",
          "type": "uint256"
        }
      ],
      "name": "ownerToIot",
      "outputs": [
        {
          "internalType": "uint256",
          "name": "",
          "type": "uint256"
        }
      ],
      "payable": false,
      "stateMutability": "view",
      "type": "function"
    },
    {
      "constant": false,
      "inputs": [
        {
          "internalType": "string",
          "name": "_newName",
          "type": "string"
        },
        {
          "internalType": "address",
          "name": "_newIotDevice",
          "type": "address"
        }
      ],
      "name": "createIotDevice",
      "outputs": [],
      "payable": false,
      "stateMutability": "nonpayable",
      "type": "function"
    },
    {
      "constant": true,
      "inputs": [
        {
          "internalType": "address",
          "name": "_ownerAddress",
          "type": "address"
        }
      ],
      "name": "getIotCount",
      "outputs": [
        {
          "internalType": "uint256",
          "name": "",
          "type": "uint256"
        }
      ],
      "payable": false,
      "stateMutability": "view",
      "type": "function"
    },
    {
      "constant": true,
      "inputs": [
        {
          "internalType": "uint256",
          "name": "_index",
          "type": "uint256"
        }
      ],
      "name": "getIotIdByIndex",
      "outputs": [
        {
          "internalType": "uint256",
          "name": "",
          "type": "uint256"
        }
      ],
      "payable": false,
      "stateMutability": "view",
      "type": "function"
    },
    {
      "constant": false,
      "inputs": [
        {
          "internalType": "uint256",
          "name": "_IotId",
          "type": "uint256"
        },
        {
          "internalType": "uint256",
          "name": "_newTemp",
          "type": "uint256"
        }
      ],
      "name": "setTemp",
      "outputs": [],
      "payable": false,
      "stateMutability": "nonpayable",
      "type": "function"
    },
    {
      "constant": false,
      "inputs": [
        {
          "internalType": "uint256",
          "name": "_IotId",
          "type": "uint256"
        },
        {
          "internalType": "uint256",
          "name": "_newHumidity",
          "type": "uint256"
        }
      ],
      "name": "setHumidity",
      "outputs": [],
      "payable": false,
      "stateMutability": "nonpayable",
      "type": "function"
    },
    {
      "constant": false,
      "inputs": [
        {
          "internalType": "uint256",
          "name": "_IotId",
          "type": "uint256"
        },
        {
          "internalType": "string",
          "name": "_newIpAddress",
          "type": "string"
        }
      ],
      "name": "setIpAddress",
      "outputs": [],
      "payable": false,
      "stateMutability": "nonpayable",
      "type": "function"
    },
    {
      "constant": true,
      "inputs": [
        {
          "internalType": "uint256",
          "name": "_IotId",
          "type": "uint256"
        }
      ],
      "name": "getTemp",
      "outputs": [
        {
          "internalType": "uint256",
          "name": "",
          "type": "uint256"
        }
      ],
      "payable": false,
      "stateMutability": "view",
      "type": "function"
    },
    {
      "constant": true,
      "inputs": [
        {
          "internalType": "uint256",
          "name": "_IotId",
          "type": "uint256"
        }
      ],
      "name": "getTime",
      "outputs": [
        {
          "internalType": "uint256",
          "name": "",
          "type": "uint256"
        }
      ],
      "payable": false,
      "stateMutability": "view",
      "type": "function"
    },
    {
      "constant": true,
      "inputs": [
        {
          "internalType": "uint256",
          "name": "_IotId",
          "type": "uint256"
        }
      ],
      "name": "getHumidity",
      "outputs": [
        {
          "internalType": "uint256",
          "name": "",
          "type": "uint256"
        }
      ],
      "payable": false,
      "stateMutability": "view",
      "type": "function"
    },
    {
      "constant": true,
      "inputs": [
        {
          "internalType": "uint256",
          "name": "_IotId",
          "type": "uint256"
        }
      ],
      "name": "getIpAddress",
      "outputs": [
        {
          "internalType": "string",
          "name": "",
          "type": "string"
        }
      ],
      "payable": false,
      "stateMutability": "view",
      "type": "function"
    }
  ],
  "bytecode": "0x6080604052600060045534801561001557600080fd5b5061131d806100256000396000f3fe608060405234801561001057600080fd5b50600436106100f55760003560e01c80637362782611610097578063cc6f372811610066578063cc6f37281461061d578063d3aeafad1461068b578063ec9c59db146106ed578063f7bce36c1461072f576100f5565b8063736278261461038f578063a3cd3146146103d1578063a7143e6e14610429578063bdda4cdf146104ee576100f5565b80633c155074116100d35780633c15507414610265578063427f4c48146102d35780634bbaac6214610315578063533159f31461034d576100f5565b8063058266d5146100fa57806323f84bc914610132578063354436361461018a575b600080fd5b6101306004803603604081101561011057600080fd5b8101908080359060200190929190803590602001909291905050506107d6565b005b6101746004803603602081101561014857600080fd5b81019080803573ffffffffffffffffffffffffffffffffffffffff169060200190929190505050610872565b6040518082815260200191505060405180910390f35b610263600480360360408110156101a057600080fd5b81019080803590602001906401000000008111156101bd57600080fd5b8201836020820111156101cf57600080fd5b803590602001918460018302840111640100000000831117156101f157600080fd5b91908080601f016020809104026020016040519081016040528093929190818152602001838380828437600081840152601f19601f820116905080830192505050505050509192919290803573ffffffffffffffffffffffffffffffffffffffff16906020019092919050505061088a565b005b6102916004803603602081101561027b57600080fd5b8101908080359060200190929190505050610b79565b604051808273ffffffffffffffffffffffffffffffffffffffff1673ffffffffffffffffffffffffffffffffffffffff16815260200191505060405180910390f35b6102ff600480360360208110156102e957600080fd5b8101908080359060200190929190505050610bac565b6040518082815260200191505060405180910390f35b61034b6004803603604081101561032b57600080fd5b810190808035906020019092919080359060200190929190505050610bd4565b005b6103796004803603602081101561036357600080fd5b8101908080359060200190929190505050610c70565b6040518082815260200191505060405180910390f35b6103bb600480360360208110156103a557600080fd5b8101908080359060200190929190505050610cce565b6040518082815260200191505060405180910390f35b610413600480360360208110156103e757600080fd5b81019080803573ffffffffffffffffffffffffffffffffffffffff169060200190929190505050610cf6565b6040518082815260200191505060405180910390f35b6104ec6004803603604081101561043f57600080fd5b81019080803590602001909291908035906020019064010000000081111561046657600080fd5b82018360208201111561047857600080fd5b8035906020019184600183028401116401000000008311171561049a57600080fd5b91908080601f016020809104026020016040519081016040528093929190818152602001838380828437600081840152601f19601f820116905080830192505050505050509192919290505050610d3f565b005b61051a6004803603602081101561050457600080fd5b8101908080359060200190929190505050610e2d565b604051808781526020018060200180602001868152602001858152602001848152602001838103835288818151815260200191508051906020019080838360005b8381101561057657808201518184015260208101905061055b565b50505050905090810190601f1680156105a35780820380516001836020036101000a031916815260200191505b50838103825287818151815260200191508051906020019080838360005b838110156105dc5780820151818401526020810190506105c1565b50505050905090810190601f1680156106095780820380516001836020036101000a031916815260200191505b509850505050505050505060405180910390f35b6106496004803603602081101561063357600080fd5b8101908080359060200190929190505050610fa6565b604051808273ffffffffffffffffffffffffffffffffffffffff1673ffffffffffffffffffffffffffffffffffffffff16815260200191505060405180910390f35b6106d7600480360360408110156106a157600080fd5b81019080803573ffffffffffffffffffffffffffffffffffffffff16906020019092919080359060200190929190505050610fd9565b6040518082815260200191505060405180910390f35b6107196004803603602081101561070357600080fd5b8101908080359060200190929190505050611007565b6040518082815260200191505060405180910390f35b61075b6004803603602081101561074557600080fd5b810190808035906020019092919050505061102f565b6040518080602001828103825283818151815260200191508051906020019080838360005b8381101561079b578082015181840152602081019050610780565b50505050905090810190601f1680156107c85780820380516001836020036101000a031916815260200191505b509250505060405180910390f35b6107e082336110ef565b6107e957600080fd5b80600583815481106107f757fe5b906000526020600020906006020160040181905550426005838154811061081a57fe5b9060005260206000209060060201600501819055507f622c6326a19909875a4ee203f099a2bb29ce27217e50475cd906cd14699fd2768282604051808381526020018281526020019250505060405180910390a15050565b60026020528060005260406000206000915090505481565b60056040518060c001604052806004548152602001848152602001604051806020016040528060008152508152602001600081526020016000815260200160008152509080600181540180825580915050906001820390600052602060002090600602016000909192909190915060008201518160000155602082015181600101908051906020019061091e9291906111c3565b50604082015181600201908051906020019061093b9291906111c3565b50606082015181600301556080820151816004015560a0820151816005015550505033600080600454815260200190815260200160002060006101000a81548173ffffffffffffffffffffffffffffffffffffffff021916908373ffffffffffffffffffffffffffffffffffffffff1602179055508060016000600454815260200190815260200160002060006101000a81548173ffffffffffffffffffffffffffffffffffffffff021916908373ffffffffffffffffffffffffffffffffffffffff1602179055506001600260003373ffffffffffffffffffffffffffffffffffffffff1673ffffffffffffffffffffffffffffffffffffffff16815260200190815260200160002060008282540192505081905550600360003373ffffffffffffffffffffffffffffffffffffffff1673ffffffffffffffffffffffffffffffffffffffff16815260200190815260200160002060045490806001815401808255809150509060018203906000526020600020016000909192909190915055507f9e9bfce6c47bc77b751455762912b36e9339ef70f54ed9a7e3930123ca2277e6600454836040518083815260200180602001828103825283818151815260200191508051906020019080838360005b83811015610b28578082015181840152602081019050610b0d565b50505050905090810190601f168015610b555780820380516001836020036101000a031916815260200191505b50935050505060405180910390a16004600081548092919060010191905055505050565b60016020528060005260406000206000915054906101000a900473ffffffffffffffffffffffffffffffffffffffff1681565b600060058281548110610bbb57fe5b9060005260206000209060060201600401549050919050565b610bde82336110ef565b610be757600080fd5b8060058381548110610bf557fe5b9060005260206000209060060201600301819055504260058381548110610c1857fe5b9060005260206000209060060201600501819055507fd40dee460d69dbae07a5e04dd222a51770629caba5f27870bf0e9bac8c5173a48282604051808381526020018281526020019250505060405180910390a15050565b6000600360003373ffffffffffffffffffffffffffffffffffffffff1673ffffffffffffffffffffffffffffffffffffffff1681526020019081526020016000208281548110610cbc57fe5b90600052602060002001549050919050565b600060058281548110610cdd57fe5b9060005260206000209060060201600501549050919050565b6000600260008373ffffffffffffffffffffffffffffffffffffffff1673ffffffffffffffffffffffffffffffffffffffff168152602001908152602001600020549050919050565b610d4982336110ef565b610d5257600080fd5b8060058381548110610d6057fe5b90600052602060002090600602016002019080519060200190610d84929190611243565b507f07efa8ab287a7be70161af7b4e607666274b20f90ec87ca462a275343b80356582826040518083815260200180602001828103825283818151815260200191508051906020019080838360005b83811015610dee578082015181840152602081019050610dd3565b50505050905090810190601f168015610e1b5780820380516001836020036101000a031916815260200191505b50935050505060405180910390a15050565b60058181548110610e3a57fe5b9060005260206000209060060201600091509050806000015490806001018054600181600116156101000203166002900480601f016020809104026020016040519081016040528092919081815260200182805460018160011615610100020316600290048015610eec5780601f10610ec157610100808354040283529160200191610eec565b820191906000526020600020905b815481529060010190602001808311610ecf57829003601f168201915b505050505090806002018054600181600116156101000203166002900480601f016020809104026020016040519081016040528092919081815260200182805460018160011615610100020316600290048015610f8a5780601f10610f5f57610100808354040283529160200191610f8a565b820191906000526020600020905b815481529060010190602001808311610f6d57829003601f168201915b5050505050908060030154908060040154908060050154905086565b60006020528060005260406000206000915054906101000a900473ffffffffffffffffffffffffffffffffffffffff1681565b60036020528160005260406000208181548110610ff257fe5b90600052602060002001600091509150505481565b60006005828154811061101657fe5b9060005260206000209060060201600301549050919050565b60606005828154811061103e57fe5b90600052602060002090600602016002018054600181600116156101000203166002900480601f0160208091040260200160405190810160405280929190818152602001828054600181600116156101000203166002900480156110e35780601f106110b8576101008083540402835291602001916110e3565b820191906000526020600020905b8154815290600101906020018083116110c657829003601f168201915b50505050509050919050565b600080600084815260200190815260200160002060009054906101000a900473ffffffffffffffffffffffffffffffffffffffff1673ffffffffffffffffffffffffffffffffffffffff168273ffffffffffffffffffffffffffffffffffffffff1614806111bb57506001600084815260200190815260200160002060009054906101000a900473ffffffffffffffffffffffffffffffffffffffff1673ffffffffffffffffffffffffffffffffffffffff168273ffffffffffffffffffffffffffffffffffffffff16145b905092915050565b828054600181600116156101000203166002900490600052602060002090601f016020900481019282601f1061120457805160ff1916838001178555611232565b82800160010185558215611232579182015b82811115611231578251825591602001919060010190611216565b5b50905061123f91906112c3565b5090565b828054600181600116156101000203166002900490600052602060002090601f016020900481019282601f1061128457805160ff19168380011785556112b2565b828001600101855582156112b2579182015b828111156112b1578251825591602001919060010190611296565b5b5090506112bf91906112c3565b5090565b6112e591905b808211156112e15760008160009055506001016112c9565b5090565b9056fea265627a7a72315820b8d9aaff09c2599b2e3944cf04edee545fcd83427b88b6d15f204ab347b209de64736f6c63430005100032",
  "source": "pragma solidity ^0.5.16;\r\n\r\n\r\ncontract IotDevice{\r\n    \r\n    struct Iot{\r\n        uint id;\r\n        string name;\r\n        string IpAddress;\r\n        uint temp;\r\n        uint humidity;\r\n        uint time;\r\n    }\r\n    // iot address\r\n    event IotAddress(uint id,string name);\r\n    // iot temp\r\n    event TempChange(uint id,uint temp);\r\n    // iot humidity\r\n    event HumidityChange(uint id,uint temp);\r\n    // ipAddress\r\n    event IpChange(uint id, string ipAddress);\r\n    // mapping\r\n    mapping(uint => address) public IotDeviceToOwner;\r\n    \r\n    mapping(uint => address) public ToIot;\r\n    \r\n    mapping(address => uint) public ownerIotCount;\r\n    \r\n    mapping(address => uint[]) public ownerToIot;\r\n    \r\n    // CurrentIotId\r\n    uint CurrentIotId = 0;\r\n    // Iot to iotdevice\r\n    Iot[] public iotdevice;\r\n    // function\r\n    function createIotDevice(string memory _newName,address _newIotDevice) public {\r\n        iotdevice.push(Iot(CurrentIotId, _newName, '', 0, 0,0));\r\n        IotDeviceToOwner[CurrentIotId]=msg.sender;\r\n        ToIot[CurrentIotId]= _newIotDevice;\r\n        ownerIotCount[msg.sender] += 1;\r\n        ownerToIot[msg.sender].push(CurrentIotId);\r\n        emit IotAddress(CurrentIotId, _newName);\r\n        CurrentIotId++;\r\n    }\r\n    function isPermittedAddress(uint _IotId, address _senderAddress) private view  returns (bool) {\r\n    return _senderAddress == IotDeviceToOwner[_IotId] || _senderAddress == ToIot[_IotId];\r\n    }\r\n  \r\n    function getIotCount(address _ownerAddress) public view  returns (uint) {\r\n    return ownerIotCount[_ownerAddress];\r\n    }\r\n    \r\n    function getIotIdByIndex(uint _index) public view returns (uint) {\r\n    return ownerToIot[msg.sender][_index];\r\n    }\r\n  \r\n    // Setters\r\n    // Check that sender owns the Iot\r\n    // Update stored value for a Iot\r\n    // Trigger change event  \r\n    function setTemp(uint _IotId, uint _newTemp) public {\r\n    require(isPermittedAddress(_IotId, msg.sender));\r\n    iotdevice[_IotId].temp = _newTemp;\r\n    iotdevice[_IotId].time = block.timestamp;\r\n    emit TempChange(_IotId, _newTemp);\r\n    }\r\n\r\n    function setHumidity(uint _IotId, uint _newHumidity) public {\r\n    require(isPermittedAddress(_IotId, msg.sender));\r\n    iotdevice[_IotId].humidity = _newHumidity;\r\n    iotdevice[_IotId].time = block.timestamp;\r\n    emit HumidityChange(_IotId, _newHumidity);\r\n    }\r\n    \r\n    function setIpAddress(uint _IotId, string memory _newIpAddress) public {\r\n    require(isPermittedAddress(_IotId, msg.sender));\r\n    iotdevice[_IotId].IpAddress = _newIpAddress;\r\n    emit IpChange(_IotId, _newIpAddress);\r\n    }\r\n  \r\n    \r\n    function getTemp(uint _IotId) public view  returns (uint) {\r\n    return iotdevice[_IotId].temp;\r\n    \r\n    }\r\n    function getTime(uint _IotId) public view  returns (uint) {\r\n    return iotdevice[_IotId].time;\r\n    }\r\n\r\n    function getHumidity(uint _IotId) public view returns (uint) {\r\n    return iotdevice[_IotId].humidity;\r\n    }\r\n    \r\n    function getIpAddress(uint _IotId) public view returns (string memory) {\r\n    return iotdevice[_IotId].IpAddress;\r\n    }\r\n    \r\n}",
  "sourcePath": "E:/New folder/htdocs/supplychain1/contracts/IotDevice.sol",
  "compiler": {
    "name": "solc",
    "version": "0.5.16+commit.9c3226ce.Emscripten.clang"
  },
  "schemaVersion": "3.3.4",
  "updatedAt": "2021-04-20T07:34:42.661Z",
  "networkType": "ethereum",
  "devdoc": {
    "methods": {}
  },
  "userdoc": {
    "methods": {}
  }
}