{
  "contractName": "Order",
  "abi": [
    {
      "anonymous": false,
      "inputs": [
        {
          "indexed": false,
          "internalType": "uint256",
          "name": "index",
          "type": "uint256"
        }
      ],
      "name": "Added",
      "type": "event"
    },
    {
      "constant": false,
      "inputs": [
        {
          "internalType": "string",
          "name": "_a",
          "type": "string"
        },
        {
          "internalType": "string",
          "name": "_b",
          "type": "string"
        }
      ],
      "name": "concat",
      "outputs": [
        {
          "internalType": "string",
          "name": "",
          "type": "string"
        }
      ],
      "payable": false,
      "stateMutability": "nonpayable",
      "type": "function"
    },
    {
      "constant": false,
      "inputs": [
        {
          "internalType": "string",
          "name": "_text",
          "type": "string"
        },
        {
          "internalType": "string",
          "name": "_date",
          "type": "string"
        }
      ],
      "name": "newItem",
      "outputs": [
        {
          "internalType": "bool",
          "name": "",
          "type": "bool"
        }
      ],
      "payable": false,
      "stateMutability": "nonpayable",
      "type": "function"
    },
    {
      "constant": false,
      "inputs": [
        {
          "internalType": "uint256",
          "name": "_productId",
          "type": "uint256"
        },
        {
          "internalType": "string",
          "name": "info",
          "type": "string"
        }
      ],
      "name": "addState",
      "outputs": [
        {
          "internalType": "string",
          "name": "",
          "type": "string"
        }
      ],
      "payable": false,
      "stateMutability": "nonpayable",
      "type": "function"
    },
    {
      "constant": false,
      "inputs": [
        {
          "internalType": "uint256",
          "name": "_productId",
          "type": "uint256"
        }
      ],
      "name": "searchProduct",
      "outputs": [
        {
          "internalType": "string",
          "name": "",
          "type": "string"
        }
      ],
      "payable": false,
      "stateMutability": "nonpayable",
      "type": "function"
    }
  ],
  "bytecode": "0x6080604052600060015534801561001557600080fd5b50610d77806100256000396000f3fe608060405234801561001057600080fd5b506004361061004c5760003560e01c80633cde01b514610051578063453bccb6146100f857806389c19ddb14610236578063a3d835c014610401575b600080fd5b61007d6004803603602081101561006757600080fd5b810190808035906020019092919050505061056b565b6040518080602001828103825283818151815260200191508051906020019080838360005b838110156100bd5780820151818401526020810190506100a2565b50505050905090810190601f1680156100ea5780820380516001836020036101000a031916815260200191505b509250505060405180910390f35b6101bb6004803603604081101561010e57600080fd5b81019080803590602001909291908035906020019064010000000081111561013557600080fd5b82018360208201111561014757600080fd5b8035906020019184600183028401116401000000008311171561016957600080fd5b91908080601f016020809104026020016040519081016040528093929190818152602001838380828437600081840152601f19601f820116905080830192505050505050509192919290505050610870565b6040518080602001828103825283818151815260200191508051906020019080838360005b838110156101fb5780820151818401526020810190506101e0565b50505050905090810190601f1680156102285780820380516001836020036101000a031916815260200191505b509250505060405180910390f35b6103866004803603604081101561024c57600080fd5b810190808035906020019064010000000081111561026957600080fd5b82018360208201111561027b57600080fd5b8035906020019184600183028401116401000000008311171561029d57600080fd5b91908080601f016020809104026020016040519081016040528093929190818152602001838380828437600081840152601f19601f8201169050808301925050505050505091929192908035906020019064010000000081111561030057600080fd5b82018360208201111561031257600080fd5b8035906020019184600183028401116401000000008311171561033457600080fd5b91908080601f016020809104026020016040519081016040528093929190818152602001838380828437600081840152601f19601f820116905080830192505050505050509192919290505050610995565b6040518080602001828103825283818151815260200191508051906020019080838360005b838110156103c65780820151818401526020810190506103ab565b50505050905090810190601f1680156103f35780820380516001836020036101000a031916815260200191505b509250505060405180910390f35b6105516004803603604081101561041757600080fd5b810190808035906020019064010000000081111561043457600080fd5b82018360208201111561044657600080fd5b8035906020019184600183028401116401000000008311171561046857600080fd5b91908080601f016020809104026020016040519081016040528093929190818152602001838380828437600081840152601f19601f820116905080830192505050505050509192919290803590602001906401000000008111156104cb57600080fd5b8201836020820111156104dd57600080fd5b803590602001918460018302840111640100000000831117156104ff57600080fd5b91908080601f016020809104026020016040519081016040528093929190818152602001838380828437600081840152601f19601f820116905080830192505050505050509192919290505050610ade565b604051808215151515815260200191505060405180910390f35b606060015482111561057c57600080fd5b60606040518060400160405280600e81526020017f50726f64756374204e616d653a20000000000000000000000000000000000000815250905061066d816000808681526020019081526020016000206001018054600181600116156101000203166002900480601f0160208091040260200160405190810160405280929190818152602001828054600181600116156101000203166002900480156106635780601f1061063857610100808354040283529160200191610663565b820191906000526020600020905b81548152906001019060200180831161064657829003601f168201915b5050505050610995565b90506106ae816040518060400160405280601081526020017f3c62723e4f7264657220446174653a2000000000000000000000000000000000815250610995565b9050610767816000808681526020019081526020016000206003018054600181600116156101000203166002900480601f01602080910402602001604051908101604052809291908181526020018280546001816001161561010002031660029004801561075d5780601f106107325761010080835404028352916020019161075d565b820191906000526020600020905b81548152906001019060200180831161074057829003601f168201915b5050505050610995565b905060008090505b60008085815260200190815260200160002060040154811015610866576108578260008087815260200190815260200160002060050160008481526020019081526020016000206000018054600181600116156101000203166002900480601f01602080910402602001604051908101604052809291908181526020018280546001816001161561010002031660029004801561084d5780601f106108225761010080835404028352916020019161084d565b820191906000526020600020905b81548152906001019060200180831161083057829003601f168201915b5050505050610995565b9150808060010191505061076f565b5080915050919050565b606060015483111561088157600080fd5b610889610c28565b60405180604001604052808481526020013373ffffffffffffffffffffffffffffffffffffffff168152509050806000808681526020019081526020016000206005016000806000888152602001908152602001600020600401548152602001908152602001600020600082015181600001908051906020019061090e929190610c58565b5060208201518160010160006101000a81548173ffffffffffffffffffffffffffffffffffffffff021916908373ffffffffffffffffffffffffffffffffffffffff16021790555090505060016000808681526020019081526020016000206004015401600080868152602001908152602001600020600401819055508291505092915050565b6060808390506060839050606081518351016040519080825280601f01601f1916602001820160405280156109d95781602001600182028038833980820191505090505b5090506060819050600080905060008090505b8551811015610a5a57858181518110610a0157fe5b602001015160f81c60f81b838380600101945081518110610a1e57fe5b60200101907effffffffffffffffffffffffffffffffffffffffffffffffffffffffffffff1916908160001a90535080806001019150506109ec565b5060008090505b8451811015610acf57848181518110610a7657fe5b602001015160f81c60f81b838380600101945081518110610a9357fe5b60200101907effffffffffffffffffffffffffffffffffffffffffffffffffffffffffffff1916908160001a9053508080600101915050610a61565b50819550505050505092915050565b6000610ae8610cd8565b6040518060a001604052803373ffffffffffffffffffffffffffffffffffffffff16815260200185815260200160015481526020018481526020016000815250905080600080600154815260200190815260200160002060008201518160000160006101000a81548173ffffffffffffffffffffffffffffffffffffffff021916908373ffffffffffffffffffffffffffffffffffffffff1602179055506020820151816001019080519060200190610ba2929190610c58565b50604082015181600201556060820151816003019080519060200190610bc9929190610c58565b506080820151816004015590505060018054016001819055507f64a55044d1f2eddebe1b90e8e2853e8e96931cefadbfa0b2ceb34bee3606194160018054036040518082815260200191505060405180910390a1600191505092915050565b604051806040016040528060608152602001600073ffffffffffffffffffffffffffffffffffffffff1681525090565b828054600181600116156101000203166002900490600052602060002090601f016020900481019282601f10610c9957805160ff1916838001178555610cc7565b82800160010185558215610cc7579182015b82811115610cc6578251825591602001919060010190610cab565b5b509050610cd49190610d1d565b5090565b6040518060a00160405280600073ffffffffffffffffffffffffffffffffffffffff168152602001606081526020016000815260200160608152602001600081525090565b610d3f91905b80821115610d3b576000816000905550600101610d23565b5090565b9056fea265627a7a72315820953d0133b8a05024ca76b45dda678456c2a264720f7cea60c7b767d0aacbfcca64736f6c63430005100032",
  "source": "pragma solidity ^0.5.16;\r\n\r\ncontract Order {\r\n    \r\n    event Added(uint256 index);\r\n    \r\n    struct State{\r\n        string description;\r\n        address person;\r\n    }\r\n    \r\n    struct Product{\r\n        address creator;\r\n        string productName;\r\n        uint256 productId;\r\n        string date;\r\n        uint256 totalStates;\r\n        mapping (uint256 => State) positions;\r\n    }\r\n    \r\n    mapping(uint => Product) allProducts;\r\n    uint256 items=0;\r\n    \r\n    function concat(string memory _a, string memory _b) public returns (string memory){\r\n        bytes memory bytes_a = bytes(_a);\r\n        bytes memory bytes_b = bytes(_b);\r\n        string memory length_ab = new string(bytes_a.length + bytes_b.length);\r\n        bytes memory bytes_c = bytes(length_ab);\r\n        uint k = 0;\r\n        for (uint i = 0; i < bytes_a.length; i++) bytes_c[k++] = bytes_a[i];\r\n        for (uint i = 0; i < bytes_b.length; i++) bytes_c[k++] = bytes_b[i];\r\n        return string(bytes_c);\r\n    }\r\n    \r\n    function newItem(string memory _text, string memory _date) public returns (bool) {\r\n        Product memory newItem = Product({creator: msg.sender, totalStates: 0,productName: _text, productId: items, date: _date});\r\n        allProducts[items]=newItem;\r\n        items = items+1;\r\n        emit Added(items-1);\r\n        return true;\r\n    }\r\n    \r\n    function addState(uint _productId, string memory info) public returns (string memory) {\r\n        require(_productId<=items);\r\n        \r\n        State memory newState = State({person: msg.sender, description: info});\r\n        \r\n        allProducts[_productId].positions[ allProducts[_productId].totalStates ]=newState;\r\n        \r\n        allProducts[_productId].totalStates = allProducts[_productId].totalStates +1;\r\n        return info;\r\n    }\r\n    \r\n    function searchProduct(uint _productId) public  returns (string memory) {\r\n\r\n        require(_productId<=items);\r\n        string memory output=\"Product Name: \";\r\n        output=concat(output, allProducts[_productId].productName);\r\n        output=concat(output, \"<br>Order Date: \");\r\n        output=concat(output, allProducts[_productId].date);\r\n        \r\n        for (uint256 j=0; j<allProducts[_productId].totalStates; j++){\r\n            output=concat(output, allProducts[_productId].positions[j].description);\r\n        }\r\n        return output;\r\n        \r\n    }\r\n    \r\n}",
  "sourcePath": "E:/New folder/htdocs/supplychain1/contracts/Order.sol",
  "compiler": {
    "name": "solc",
    "version": "0.5.16+commit.9c3226ce.Emscripten.clang"
  },
  "schemaVersion": "3.3.4",
  "updatedAt": "2021-04-20T07:34:43.019Z",
  "networkType": "ethereum",
  "devdoc": {
    "methods": {}
  },
  "userdoc": {
    "methods": {}
  }
}